:08000000803102288731FD2F39
:100F76000030F3000030F2000030F1000030F000E5
:100F86000130F0070030F13D0030F23D0030F33D16
:100F96007308031DD82F903070025F30713B01300B
:100FA600723B031CD72FD82FC32F080021000F1028
:100FB6008F100F118F110D108D100D118D11220034
:100FC6000F148F140F158F150D108D100D118D1117
:100FD6008731BB27873122000F108F100F118F1119
:100FE6000D148D140D158D158731BB278731E22F12
:0A0FF6008031022820008731D92F36
:020000040001F9
:04000E00EA3FFB1EAC
:00000001FF
