:08000000803102288731FC2F3A
:100F2800FE30F100710821008F05FD30F1007108D5
:100F38008F05FB30F10071088F05F730F10071085B
:100F48008F05FE30F10071088D05FD30F100710844
:100F58008D05FB30F10071088D05F730F10071083F
:100F68008D05FF3020009B007C309C002000911CE8
:100F7800BE2FBF2FBA2F911022008F018D01D42FC1
:100F88000F14EE2F8F14EE2F0F15EE2F8F15EE2F57
:100F98000D14EE2F8D14EE2F0D15EE2F8D15EE2F4F
:100FA8007008003A0319C42F013A0319C62F033AEF
:100FB8000319C82F013A0319CA2F073A0319CC2F6E
:100FC800013A0319CE2F033A0319D02F013A031916
:100FD800D22FEE2F0130F1007108F00708307002AF
:100FE800031CF72FF82FBA2FF001BA2F80310228EF
:080FF800F00120008731942F65
:020000040001F9
:04000E00EA3FFB1EAC
:00000001FF
