:08000000803102288731F72F3F
:100F0800F030F600760821008F05F030F6007608FC
:100F18008D057C3020009B001C15FC309C0578302A
:100F28009C0422008F018D01A92F0F14D22F8F143A
:100F3800D22F0F15D22F8F15D22F0D14D22F8D141B
:100F4800D22F0D15D22F8D15D22F7508003A0319FF
:100F5800AE2FD22F7408003A0319992F013A0319BA
:100F68009B2F033A03199D2F013A03199F2F073A24
:100F78000319A12F013A0319A32F033A0319A52F27
:100F8800013A0319A72FD22F2000911CCC2FCD2F67
:100F9800C82F91100130F0070030F13D7108803AF8
:100FA800F60080307602031DDB2F7D307002031CB3
:100FB800DE2FDF2FC82FF001F1010130F4070030D8
:100FC800F53D7508803AF60080307602031DEE2F55
:100FD80008307402031CF12FF22F952FF401F5014C
:100FE800952F80310228F001F101F201F301F4019B
:080FF800F50120008731842F70
:020000040001F9
:04000E00EA3FFB1EAC
:00000001FF
