:08000000803102288731FD2F39
:100F7C000030F3000030F2000030F1000030F000DF
:100F8C000130F0070030F13D0030F23D0030F33D10
:100F9C007308031DDB2F903070025F30713B013002
:100FAC00723B031CDA2FDB2FC62F080021008F01A8
:100FBC008D0122008D010F308F0008300F020318B5
:100FCC00E82FE92FEF2F0F358F008731BE278731A0
:100FDC00DF2F8F0101308D0008300D020318F72F21
:100FEC00F82FDF2F0D358D00EB2F803102282000DC
:040FFC008731DC2F2E
:020000040001F9
:04000E00EA3FFB1EAC
:00000001FF
