:08000000803102288731F92F3D
:100F1000F030F400740821008F05F030F4007408FC
:100F20008D05FF3020009B007C309C002000911C30
:100F30009A2F9B2F962F91100130F0070030F13D32
:100F40007108803AF40080307402031DA92F3D30EF
:100F50007002031CAC2FAD2F962FF001F10122007F
:100F60008F018D01C32F0F14E22F8F14E22F0F1565
:100F7000E22F8F15E22F0D14E22F8D14E22F0D15A5
:100F8000E22F8D15E22F7308003A0319C82FE22FC4
:100F90007208003A0319B32F013A0319B52F033A27
:100FA0000319B72F013A0319B92F073A0319BB2FB9
:100FB000013A0319BD2F033A0319BF2F013A031950
:100FC000C12FE22F0130F2070030F33D7308803A61
:100FD000F40080307402031DEF2F08307202031CEE
:100FE000F22FF32FF62FF201F301962F962F803177
:100FF0000228F001F101F201F30120008731882F6E
:020000040001F9
:04000E00EA3FFB1EAC
:00000001FF
